:020000040800F2
:1000000000070020450100087F1D0008D3190008E3
:100010007D1D0008CD080008A12100080000000097
:10002000000000000000000000000000831D000828
:10003000250A000800000000811D0008E11E0008DC
:100040005F0100085F0100085F0100085F01000810
:100050005F0100085F0100085F0100085F01000800
:100060005F0100085F0100085F0100085F010008F0
:100070005F0100085F0100085F0100085F010008E0
:100080005F0100085F0100085F0100085F010008D0
:100090005F0100085F0100085F0100085F010008C0
:1000A0005F0100085F0100085F0100085F010008B0
:1000B0005F0100085F0100085F0100085F010008A0
:1000C0005F0100085F0100085F0100085F01000890
:1000D0005F010008952100085F0100085F0100082A
:1000E0005F0100085F0100085F0100085F01000870
:1000F0005F0100085F0100085F0100085F01000860
:100100005F0100085F0100085F0100085F0100084F
:100110005F0100085F0100085F0100085F0100083F
:100120005F0100085F0100085F0100085F0100082F
:10013000DFF80CD000F0DCFA00480047012F00087F
:10014000000700200648804706480047FEE7FEE714
:10015000FEE7FEE7FEE7FEE7FEE7FEE7FEE7FEE777
:10016000411F000831010008202A04DB203A21FA4F
:1001700002F00021704721FA02F3D040C2F12002C0
:10018000914008431946704740EA01039B0703D09A
:1001900009E008C9121F08C0042AFAD203E011F8C6
:1001A000013B00F8013B521EF9D27047D2B201E088
:1001B00000F8012B491EFBD270470022F6E710B56C
:1001C00013460A4604461946FFF7F0FF204610BDC5
:1001D00080EA010210B502F00043400022D04A003C
:1001E0001FD0010E01EB1261C0F35600C2F356029C
:1001F00040F4000042F40002A0FB022000047F391A
:10020000140400D0401C50EA124001D44000491EA2
:10021000C2B20C0604EBD010401C4008802A02D069
:1002200003E0002010BD20F00100002900DA0020CA
:10023000184310BD420005D0C0F3C752524291424C
:1002400001DC0020704700EBC1507047C10F80EA0D
:10025000E0700844CA079623002100F063B800F05C
:10026000004230F000400AD0C10D01F56071C0F3CA
:10027000160042EA0151C2084007114370470020AE
:100280000146704730B50B4601460020202201246C
:1002900009E021FA02F59D4205D303FA02F5491B54
:1002A00004FA02F52844151EA2F10102F1DC30BD6A
:1002B0002DE9F05F0546002092469B46884606469B
:1002C000814640241BE02846414647462246FFF728
:1002D0004BFF53465A46C01A914110D31146184657
:1002E000224600F017FA2D1A67EB01084F46224606
:1002F0000120002100F00EFA17EB00094E41201EEC
:10030000A4F10104DFDC484631462A464346BDE8F5
:10031000F09F0029A8BF7047401C490008BF20F08B
:100320000100704710B4B0FA80FC00FA0CF050EAFB
:10033000010404BF10BC704749B1CCF1200421FA7C
:1003400004F411FA0CF118BF012121430843A3EB77
:100350000C01CB1D4FEA00614FEA102042BF002084
:1003600010BC704700EBC35010440029A4BF10BC60
:100370007047401C490008BF20F0010010BC7047C6
:100380002DE9FE4F804681EA0300C00F0C46009025
:1003900021F0004123F00045B8EB0200A94105D24D
:1003A0004046214690461C460B46024623F000403C
:1003B000104347D0270DC7F30A00C3F30A51029038
:1003C000401A019040286BDAC3F3130040F4801BFD
:1003D0000098924620B10023D2EB030A63EB0B0B8B
:1003E00001985946C0F14002504600F093F9064684
:1003F0000D4650465946019A00F09BF910EB080053
:100400006141002487EA115284EAE7731A4340D01D
:10041000009A62B3019A012A4FEA075215DC001BC9
:1004200061EB02014FF0004202EA0752CDE90042BF
:10043000001C41F5801132462B4600F09BF903B0B9
:10044000BDE8F08F40462146F9E7001B61EB020151
:10045000001C41F5801300185B412018A2F500171D
:1004600047EB030140EAD570B6196D4111E06D0804
:100470004FEA360645EAC0754FEA0752001B61EBAA
:100480000201001C41F5801149084FEA30000019B3
:10049000514132462B4603B0BDE8F04F00F05BB946
:1004A0000098012240000023D0EB020263EBE073CE
:1004B000009821464FEAE074B8EB000061EB0401BC
:1004C000E9E783F000435BE781F0004158E72DE95D
:1004D000FE4F81EA030404F0004421F0004100943F
:1004E0004FF0000B23F0004350EA01045ED052EAC3
:1004F00003045BD0C3F30A54C1F30A552C44A4F29D
:10050000F3340194A0FB0254C1F3130141F48011B0
:10051000C3F3130343F4801301FB024400FB034EB7
:10052000840A970A44EA815447EA8357A4FB076880
:1005300002958D0A05FB07854FEA932C04FB0C54AA
:100540002705029D4FEA065847EA1637B5EB08051E
:100550006EEB070C870E920E47EA811742EA831270
:10056000A7FB0201B6EB0B0164EB00042B0D43EA81
:100570000C335E1844EB1C50DA465146E7FB02018F
:10058000C5F313044FEA0B3343EA14534FEA043222
:10059000019C43EA0603A4F10C040294009CCDE9FB
:1005A00000B400F0E7F803B0BDE8F08F002001468A
:1005B000F9E72DE9F04D81EA030404F0004B21F046
:1005C000004514464FF0000A23F0004150EA0502AE
:1005D00020D054EA01021DD0C5F30A570246C5F3E4
:1005E0001303C1F31300C1F30A5640F4801543F41A
:1005F0008013A7EB0608101BD64608F2FD3873EBF4
:10060000050002D308F1010801E092185B41B8F13E
:10061000000F03DA00200146BDE8F08D00204FF402
:100620008011064684460EE0171B73EB050705D3C1
:10063000121B63EB050306434CEA010C49084FEA21
:10064000300092185B4150EA0107EDD152EA0300F5
:1006500012D082EA040083EA0501084305D0101B8A
:10066000AB4106D20122002306E000224FF00043F6
:1006700002E06FF0010253101AEB06004CEB085138
:1006800010EB0A0041EB0B01BDE8F04D00F063B840
:10069000C1F30A52C1F3130140F2FF3341F4801158
:1006A0009A4202DA00200146704740F233439A42F0
:1006B000A2F2334202DC5242FFF756BD00F02AB8E4
:1006C00030B5041E71F1000404DB4FF000444042D9
:1006D00064EB0101141E73F1000405DB1C464FF0AE
:1006E0000043524263EB0403994208BF904230BD7D
:1006F000064C074D06E0E06840F0010394E807006F
:1007000098471034AC42F6D3FFF716FD0C350008BD
:100710002C350008202A04DB203A00FA02F10020E0
:1007200070479140C2F1200320FA03F3194390402F
:100730007047202A06DBCB17203A41FA02F043EA41
:10074000E07306E041FA02F3D040C2F1200291408A
:1007500008431946704710B5141E73F1000408DAF7
:10076000401C41F1000192185B411A4301D120F075
:10077000010010BD2DE9F04D92469B4611B1B1FA32
:1007800081F202E0B0FA80F220329046FFF7C2FF19
:1007900004460F4640EA0A0041EA0B0153465A4616
:1007A000084313D0114653EA010019D0C8F14002A2
:1007B0005046FFF7D9FC05460E465046594642467C
:1007C000FFF7A8FF084305D0012004E02046394682
:1007D000BDE8F08D0020054346EAE0762C43374320
:1007E0000A986305E40AA0EB08000022FD0A44EA27
:1007F00047540A3002D500200146E9E701051019E7
:100800006941DDE9084500196941BDE8F04DA2E7FD
:100810002DE9F0418AB0242216496846FFF7B4FC5E
:100820000024154DE8462746E1B2032001F0D2FC32
:1008300058F82400022668602F700321342001F04C
:10084000D7FC642000F0ACF9287838B158F82410AF
:100850000AA001F0A9FE0AB0BDE8F081761EEBD136
:10086000641C092CE0DB0BA001F09EFE0FA001F040
:100870009BFEF0E71C310008000000202564206288
:100880006175642066696E642073656E736F720DA6
:100890000A0D0A0063616E206E6F742066696E64D3
:1008A0002073656E736F720D0A000000706C6561D5
:1008B000736520636865636B20796F757220636F61
:1008C0006E6E656374696F6E0D0A0000FEE7884204
:1008D00003DB904201DC01207047002070470000DC
:1008E00010B51F4C6078652825D012DC42282FD027
:1008F000552827D0612814D062282FD15FF002003C
:1009000001F05AFD002827D016A000BF01F04CFED0
:1009100022E068281ED06D2808D075281ED1062038
:1009200011E001F073FDB8B113A0EFE701F08CFD09
:1009300090B117A0EAE701F0A5FD68B11AA0E5E7BC
:100940001FA0E3E7002001F00DFD0028F8D103E02F
:100950000620D5E701F016FAFF20607010BD0000F8
:10096000000000200D0A5365742042617564204523
:1009700072726F720D0A00000D0A53657420416394
:100980006343616C69204572726F720D0A0000004A
:100990000D0A5374617274204D616743616C692064
:1009A0004572726F720D0A000D0A456E64204D612A
:1009B0006743616C69204572726F720D0A00000016
:1009C0000D0A5365742042616E647769647468200F
:1009D0004572726F720D0A0010B50023104A15E0BF
:1009E000362809D039280BD03C2812D014783F285B
:1009F00013D044F0800406E0147844F0010402E0CF
:100A0000147844F00204401C14705B1C8B42E7D342
:100A100010BD147844F00804F5E744F00404F2E74C
:100A200000000020704772B6FEE710B590F8211064
:100A30000022022905D00421816380F820200120B2
:100A400010BD01680B6823F00E030B6001680B6892
:100A500023F001030B6090F84030C46B012101FAD0
:100A600003F3636080F8211080F82020104610BD49
:100A70002DE9F05F90F821100024022903D0042111
:100A80008163012485E001680A6822F00E020A6091
:100A900001680A6822F001020A603F4E3E4FB2151B
:100AA000DFF8F4C0DFF8F090DFF8ECA0DFF8E8B092
:100AB000DFF8E4E00168783F13011502ACF1640C43
:100AC000A9F15009AAF13C0AABF1280BAEF1140EC2
:100AD0004FF48018B14227D9B9420ED0614512D0E7
:100AE00049451DD0514518D0594518D0714501D1FF
:100AF000424615E0294EB14201D1012210E0274EB5
:100B00001436B14201D110220AE0244E2836B142F7
:100B100006D0224A3C32914201D11A4600E02A46D0
:100B20001E49091F0A602BE0B94213D0614517D056
:100B3000494522D051451DD059451DD0714501D19F
:100B400042461AE0B14202D14FF0807215E0134ED6
:100B5000B14201D1012210E0104E1436B14201D150
:100B600010220AE00D4E2836B14206D00B4A3C3224
:100B7000914201D11A4600E02A46074980394A606D
:100B8000012180F82110002180F82010416B01B173
:100B900088472046BDE8F09F8000024008040240DC
:100BA00070B5044600F00AF90546601C02D00448FE
:100BB0000078044400F002F9401BA042FAD370BD53
:100BC000080000202DE9F84FDFF8C8910024A9F1B2
:100BD000040B23460F2709F1040AABF1040ED1E000
:100BE0000125A54006EA0502AA4276D1DFF8A8C190
:100BF0004E68A6EB0C0866452BD00DDC032E34D0D6
:100C000005DC36B3012E19D0022E2FD11BE0112E98
:100C100016D0122E2AD119E0B8F5881F19D006DC9B
:100C2000B8F5803F15D0B8F5801F1FD111E0B8F599
:100C3000001F0ED0B8F5041F18D10AE0CB6815E0EC
:100C4000CB681B1D12E0CB6808330FE0CB680C3378
:100C50000CE08B682BB1012B4FF0080303D04561EA
:100C600004E0042302E0056100E00023FF2A01D82C
:100C7000064601E000F104064FEA840501D9A5F11A
:100C80002005D6F8008007FA05FC28EA0C0803FACC
:100C900005F548EA0508C6F800804D68ED0070D5F6
:100CA0003E4DAE6946F00106AE61AD6924F0030623
:100CB00005F0010500953A4D06EB050CDCF80850EF
:100CC000A607360F07FA06F825EA0805DFF8D480EC
:100CD000404503D14FF0000825E052E0DFF8C8801E
:100CE000404502D14FF001081DE0DFF8C0804045CB
:100CF00002D14FF0020816E0DFF8B480404502D17F
:100D00004FF003080FE0DFF8AC80404502D14FF010
:100D1000040808E0DFF8A080404502D14FF0050844
:100D200001E04FF0060808FA06F848EA0508CCF892
:100D300008804D68D9F80060ED024D4601D5164394
:100D400000E096432E604D68DAF80060AD0255462B
:100D500001D5164300E096432E604D68DBF8006035
:100D6000AD035D4601D5164300E096432E604D6805
:100D7000DEF80060ED03754601D5164300E09643AA
:100D80002E60641C0A681646E2407FF429AFBDE875
:100D9000F88F00000804014000001110001002400C
:100DA0000000014000080140000C0140001001401B
:100DB0000014014000180140001C014001488068F7
:100DC000704700000800002070B5040025D094F89A
:100DD0003D00002520B984F83C50204600F0B8F8CA
:100DE000242084F83D002068016821F001010160A1
:100DF0002068016841F4004101602068016821F425
:100E00000041016000F002FA4D4A6168914201D848
:100E10004C4900E04C49884201D2012070BD4B4949
:100E20002368B0FBF1F15E6826F03F060E435E607A
:100E30006368934206D94FF4967359434FF47A731B
:100E4000B1FBF3F12368491C1E6A26F03F063143CB
:100E500019626168914210D84900401EB0FBF1F25E
:100E6000521CC2F30B02042A01D2042022E0B0FB80
:100E7000F1F0401CC0F30B001CE0A268F2B301EBE0
:100E8000C10303EB0116431EB3FBF6F35B1C43F4F3
:100E900080431B0549D092B301EBC10202EB011163
:100EA000401EB0FBF1F0401CC0F30B0040F480404A
:100EB00040F400402168CA694CF6FF739A4310431E
:100EC000C861D4E9071001432068026822F0C0021B
:100ED00011430160D4E9030101432068826848F2AC
:100EE000FF339A4311438160D4E905010843216827
:100EF000CA6822F0FF021043C86001E00EE016E06D
:100F00002068016841F0010101602564202084F817
:100F10003D00256384F83E50002070BD01EB410682
:100F2000431EB3FBF6F35B1CB3E70120C2E701EB02
:100F30004101401EB0FBF1F0401CC0F30B00B7E7CD
:100F4000A086010080841E0000093D0040420F0081
:100F500010B586B0002100910191029103910068C3
:100F6000104988421BD1104CA06940F00800A061D4
:100F7000A069694600F0080004904FF440600090BA
:100F800012200190032003900848FFF71BFEE06940
:100F900040F48000E061E06900F48000049006B055
:100FA00010BD00000058004000100240000C01403D
:100FB000024881680278114481607047080000206F
:100FC000074810B5016841F010010160032000F0EE
:100FD00075F80F2000F006F800F024F8002010BD8E
:100FE0000020024070B50D4D04464FF47A71287808
:100FF000B1FBF0F00A490968B1FBF0F000F0DCFA4F
:1010000048B9102C07D200222146501E00F036F8B5
:1010100000206C6070BD012070BD00000800002041
:10102000140000200C4808B5816941F0010181617C
:10103000816901F001010091C16941F08051C161F4
:10104000C06900F0805000900448416821F0E061E0
:1010500041F00071416008BD0010024000000140F5
:10106000002809DB00F01F020121914040098000A7
:1010700000F1E020C0F8001170470000F0B40E4B02
:101080001B680C46C3F30223C3F10705042D00D9E6
:101090000425191D072901D2002300E0DB1E0126CB
:1010A00006FA05F1491E214099409E40761E1640E1
:1010B0003143F0BC01F09EBA0CED00E0064900F0AF
:1010C000070208684FF6FF03184040EA0220034A6F
:1010D00010430860704700000CED00E00000FA05C6
:1010E0002DE9F0470F46050061D0434E306800F00F
:1010F0000700B84209D2306820F00700384330605A
:10110000306800F00700B84251D128683B4C810795
:1011100012D5400703D5606840F4E060606028782D
:10112000000703D5606840F4605060606068A9689B
:1011300020F0F000084360602878C00728D0686875
:10114000012810D02168022810D0890700292EDA42
:10115000616821F0030101436160FFF72FFE8046C3
:1011600041F288390DE021688903EFE78901EDE755
:10117000FFF724FEA0EB0801494502D90320BDE892
:10118000F0876068696800F00C00B0EB810FEFD168
:10119000306800F00700B8420BD9306820F0070033
:1011A00038433060306800F00700B84201D00120B9
:1011B000E5E72878400705D56068E96820F4E06035
:1011C000084360602878000706D56068296920F424
:1011D000605040EAC100606000F038F86168084A79
:1011E000C1F30311515CC840064908600648006815
:1011F000FFF7F8FE0020C2E7002002400010024086
:1012000052310008140000200C0000200448054959
:1012100000684968044AC1F30221515CC840704724
:101220001400002000100240623100080448054903
:1012300000684968044AC1F3C221515CC840704744
:101240001400002000100240623100080E4A51686C
:101250000E4801F00C03042B11D0082B0FD10C48C1
:10126000C1F38343C903C05C0AD55168084AC1F37E
:101270004041921E515C054A5043B0FBF1F070476B
:1012800004494843704700000010024000127A00F1
:101290004231000800093D002DE9F84F040070D0EC
:1012A0002078C04DC00749D06868C0F3810001288C
:1012B00007D06868C0F38100022809D16868C003BC
:1012C00006D52868800339D560680028E7D035E066
:1012D0006068B0F5803F0BD010B1B0F5A02F11D0F1
:1012E000286820F480302860286820F4802002E0FC
:1012F000286840F480302860606890B1FFF75EFD98
:1013000006460AE0286840F480202860F0E700BF25
:10131000FFF754FD801B642873D828688003F7D535
:101320000CE0FFF74BFD064605E000BFFFF746FD6A
:10133000801B6428F0D828688003F7D420789A4E60
:1013400080074FF001094FF0000839D5686810F0A8
:101350000C0F07D06868C0F38100022809D16868C3
:10136000C00306D42868800714D52069012808D155
:1013700010E02069B0B1C6F80090FFF71FFD0746E6
:1013800005E00AE1FFF71AFDC01B0228C4D828684F
:101390008007F7D52868616920F0F80040EAC100AD
:1013A00028600DE0C6F80080FFF708FD074604E05E
:1013B000FFF704FDC01B022823D828688007F7D454
:1013C000207800072CD57948A169D9B1C0F80090E0
:1013D000FFF7F4FC074604E0FFF7F0FCC01B02280F
:1013E0000FD8686A8007F7D571484FF4FA51006842
:1013F000B0FBF1F0009000BF0098411E0091FAD2BE
:101400000EE080E0C0F80080FFF7D8FC074604E05B
:10141000FFF7D4FCC01B022875D8686A8007F7D490
:101420002078400760D5E8690027C00008D4E86943
:1014300040F08050E861E869012700F0805000909A
:101440005C480168C90513D40168834641F4807182
:101450000160FFF7B3FC824606E000BFFFF7AEFC79
:10146000A0EB0A0064284ED8DBF80000C005F5D5D3
:10147000E06801280AD008B1052813D0286A20F0B6
:1014800001002862286A20F0040002E0286A40F087
:1014900001002862E06841F2883B98B1FFF78EFCBA
:1014A00082460BE0286A40F004002862EEE700BFA5
:1014B000FFF784FCA0EB0A0159455AD8286A800737
:1014C000F6D50CE0FFF77AFC824605E0FFF776FCE4
:1014D000A0EB0A0159454CD8286A8007F6D41FB101
:1014E000E86920F08050E861E06988B36968C1F379
:1014F0008101022944D00228C6F8608004D0FFF799
:101500005DFC044638E034E0FFF758FC074604E091
:10151000FFF754FCC01B02282BD828688001F7D4A1
:10152000206AB0F5803F05D16868A16820F40030DA
:1015300008436860D4E908010843696821F474111C
:1015400008436860C6F86090FFF738FC044606E080
:1015500025E000BFFFF732FC001B022809D82868ED
:101560008001F7D51BE000BFFFF728FC001B022815
:1015700002D90320BDE8F88F28688001F4D40EE07A
:101580000128F7D06868226A00F48031914204D1C2
:10159000616A00F47010884201D00120EAE700205F
:1015A000E8E700000010024000004242800442428E
:1015B000140000200070004010B5401EB0F1807F84
:1015C00001D3012010BD4FF0E02460610F216017AE
:1015D00001F010F80020A06107202061002010BD5C
:1015E00070477047F8B5016804460868CA684B69D7
:1015F00010F00F0F4FF0000559D003F0010602F470
:101600009077374365D0C10705D0D10503D5616C0C
:1016100041F001016164410705D5D90703D0616C30
:1016200041F002016164810705D5D90703D0616CDF
:1016300041F004016164010707D502F02001314344
:1016400003D0616C41F008016164616C00293AD0FB
:10165000800604D5900602D5204600F0A1FC206843
:101660004069616CC0F38010090700D460B3204664
:1016700000F06FFC20684069400621D520681430D6
:1016800050E8001F21F0400140E80012002AF5D187
:10169000E06BA8B16D494163E06BFFF7E9F9002801
:1016A00011D0E06B416B01B0BDE8F0400847830604
:1016B0000FD593060DD52046BDE8F84000F070BC6C
:1016C0002046FFF78EFFF8BD2046FFF78AFF6564CE
:1016D000F8BD266B2023012E7CD1C6067AD5D6060E
:1016E00078D508684868009048694FF002064006BF
:1016F00040D5E16B086840680004000CE8D0A28D7A
:101700008242E5D9E085886920282DD020680C30F8
:1017100050E8001F21F4807140E80012002AF5D142
:101720002068143050E8001F21F0010140E8001249
:10173000002AF5D12068143050E8001F21F0400144
:1017400040E80012002AF5D184F842302563206871
:101750000C3050E8001F21F0100140E80012002A70
:10176000F5D1E06BFFF761F96663A08DE18D401A5A
:1017700081B22AE0A08DE18D401A81B2E08D00286F
:10178000A6D00029A4D022680C3252E8000F20F421
:10179000907042E80007002FF5D12068143050E81F
:1017A000002F22F0010240E80027002FF5D184F835
:1017B0004230256320680C3050E8002F22F01002E0
:1017C00040E80023002BF5D166632046FFF708FFB1
:1017D000F8BDFFE705062BD5150629D594F841007D
:1017E0002128F5D1A068B0F5805F01D12069B0B1A2
:1017F000206A411C2162216800784860E08C401E0C
:101800000004000CE084E3D12068C16821F080016D
:10181000C1602068C16841F04001C160D8E7206A1A
:101820000088C0F308004860206A801C2062E5E759
:101830004006CDD55006CBD5CA68204622F04002DE
:10184000CA6084F8413000F0C3F8C1E7431F0008C4
:1018500070B5040004D094F84100002510B106E0F2
:10186000012070BD84F84050204600F023F8242069
:1018700084F841002068C16821F40051C16020460D
:1018800000F0F0FB2068016921F4904101612068BB
:10189000416921F02A0141612068C16841F4005189
:1018A000C1606564202084F8410084F842006563CB
:1018B000002070BD30B585B00024009401940294DE
:1018C00003940068184988422CD11848816941F472
:1018D00080418161816901F480410491816941F015
:1018E000040181618069124D00F0040004904FF4FE
:1018F0000070009002200190032003906946284662
:10190000FFF760F92815CDE90004694628460294DE
:10191000FFF758F9002211462520FFF7AFFB2520DD
:10192000FFF79EFB05B030BD0038014000100240BB
:101930000008014070472DE9F843044690F8410043
:101940001F4616460D46202802D00220BDE8F88327
:101950007DB176B100206064212084F84100FFF75A
:101960002DFAA6848046E684A068B0F5805F02D098
:1019700003E00120EAE7206910B12E4600250EE0C1
:1019800000260CE08021204600F0C8FBA0B9AEB1D3
:1019900016F8010B21684860E08C401EE084E08C62
:1019A00043464FF0000200970028EBD14FF0400172
:1019B000204600F0B3FB30B10320C7E735F8020B37
:1019C000C0F30800E6E7202084F841000020BDE7CE
:1019D0007047FEE770B50D4C0025C4F8A8510C48BF
:1019E000016821F470410160016841F440510160D7
:1019F000C4F8AC51052004F5D474FFF7D1F80120E8
:101A000020600520FFF7CCF8256070BD00802142E2
:101A1000040C014070B50D4C0025C4F8A8510C48C9
:101A2000016821F470410160016841F44051016096
:101A30000126C4F8AC61052004F5D474FFF7B0F8B2
:101A400026600520FFF7ACF8256070BD00802142BC
:101A5000040C01402DE9F047814617480024016835
:101A600021F470410160016841F400410160134EAE
:101A7000254627464FF00108C6F8A8710520FFF754
:101A80008FF8C6F8A8816006040ED6F82C0108B1BC
:101A9000641CE4B20520FFF783F86D1CEDB2082D3D
:101AA000EAD3B9F1000F02D0FFF794FF01E0FFF78E
:101AB000B1FF2046BDE8F087040C014000802142C0
:101AC0002DE9F04106461448016821F47041016097
:101AD000016841F440510160104C0027C4F8A8711E
:101AE0003D464FF00108F009C4F8AC017006060E3F
:101AF0000220FFF755F8C4F8A8810520FFF750F839
:101B0000C4F8A8710320FFF74BF86D1CEDB2082D47
:101B1000E9D3BDE8F0810000040C014000802142BF
:101B200070B50D48016821F470410160016841F40D
:101B300040510160094C0120C4F8AC01C4F8A8016F
:101B4000052004F5D474FFF72BF800256560052007
:101B5000FFF726F8256070BD040C0140008021428B
:101B60000E4810B5016821F470410160016841F42C
:101B7000405101600A4C0020C4F8A801C4F8AC012F
:101B8000052004F5D474FFF70BF801202060606095
:101B9000BDE810400520FFF703B80000040C014029
:101BA0000080214270B513480025016821F470417E
:101BB0000160016841F4004101600F4C0126C4F846
:101BC000AC6107E06D1CEDB2322D03D9FFF7C8FF01
:101BD000012070BD0520FEF7E3FFD4F82C0100289A
:101BE000F0D1C4F8A8610520FEF7DAFF0020C4F8A0
:101BF000A80170BD040C0140008021422DE9F04194
:101C00001D461646884607460024FFF789FF3846DA
:101C1000FFF756FFFFF7C6FF012812D04046FFF737
:101C20004FFFFFF7BFFF01280BD0FFF779FF7F1CA5
:101C3000F8B2FFF745FFFFF7B5FF012801D06F1E8F
:101C40000BE00020BDE8F081BC4201D0012000E0A3
:101C50000020FFF7FFFE3055641CAC42F4D3FFF7C1
:101C60007FFF0120EEE72DE9F0411D46164688462C
:101C700007460024FFF754FF3846FFF721FFFFF720
:101C800091FF012816D04046FFF71AFFFFF78AFFA1
:101C900001280FD007E0305DFFF712FFFFF782FF4A
:101CA000012807D0641CAC42F5D3FFF759FF01208F
:101CB000BDE8F0810020FBE7094808B5816941F0E3
:101CC00008018161816901F008010091816941F099
:101CD00004018161806900F00400009008BD0000EB
:101CE00000100240134810B51149016012494160CB
:101CF00000214FF480428160C0E90312416181619B
:101D0000C1610162FFF760F808B1FEF78CFE0B4875
:101D1000016821F470410160016841F440510160A3
:101D200007490120C1F8AC01C1F8A80110BD0000AD
:101D30000058004044000020A0860100040C01402F
:101D4000008021420C4810B50A4901604FF4E1318E
:101D50004160002181600C22C160C0E904128161F0
:101D6000C161FFF775FD002803D0BDE81040FEF704
:101D70005ABE10BD0038014098000020FEE7FEE783
:101D80007047704710B5104800F00EFC0F4800F087
:101D90000BFC0FA000F008FC194800F005FC19A08E
:101DA00000F002FC21A000F0FFFB2BA000F0FCFBE8
:101DB00036A000F0F9FB42A000F0F6FBBDE81040B1
:101DC000464800F0F1BB0000C8340008BC330008EE
:101DD000554152542053454E443A615C725C6E202A
:101DE0002020416363656C65726174696F6E206366
:101DF000616C6962726174696F6E2E0D0A00000079
:101E000060340008554152542053454E443A555CC5
:101E1000725C6E20202042616E6477696474682071
:101E2000696E6372656173652E0D0A0055415254E7
:101E30002053454E443A755C725C6E20202042610E
:101E40006E64776964746820726564756374696F21
:101E50006E2E0D0A00000000554152542053454E8D
:101E6000443A425C725C6E202020426175642072AC
:101E700061746520696E6372656173656420746F57
:101E8000203131353230302E0D0A00005541525488
:101E90002053454E443A625C725C6E2020204261C1
:101EA0007564207261746520726564756374696F0E
:101EB0006E20746F20393630302E0D0A000000007D
:101EC000554152542053454E443A685C725C6E2032
:101ED000202068656C702E0D0A0000000C3400088C
:101EE000FFF766B830B58FB028216846FEF765F970
:101EF00014210AA8FEF761F901210804CDE90010B8
:101F00000024029402250491CDE907504FF4E0101B
:101F100009906846FFF7C0F908B172B6FEE70F20D6
:101F2000CDE90A058020CDE90C0402210AA80E940F
:101F3000FFF7D6F8002801D072B6FEE70FB030BD2B
:101F4000704710B5406A0021C185C184FFF749FB85
:101F500010BD01680C3151E8002F22F4907241E865
:101F60000023002BF5D10168143151E8002F22F035
:101F7000010241E80023002BF5D1016B012909D1B1
:101F800001680C3151E8002F22F0100241E80023D3
:101F9000002BF5D1202180F8421000210163704709
:101FA00008B590F84210222901D0022008BD8268AD
:101FB0004FF480539A4201D1016921B1816A9A425A
:101FC0001BD04AB10AE00268816A5268C2F3080273
:101FD0000A80816A891C08E0026972B1026852684D
:101FE00002F07F020A70816A491C8162C18D491E1C
:101FF0000904090CC18503D01BE002685268F1E7AF
:102000000168CA6822F02002CA600168CA6822F426
:102010008072CA6001684A6922F001024A61202187
:1020200080F8421000214163026B012A03D0FFF7C0
:1020300081FC002008BD016301680C3151E8002FCC
:1020400022F0100241E80023002BF5D101680A6854
:10205000D20602D50A6849680091818DFFF7C0FA5F
:10206000E7E7000070B5044600680169E26821F402
:102070004051114301612169A06808436169084327
:102080002168CA6841F20C639A430243CA6020681F
:102090004169A26921F44071114341611E492068E0
:1020A000884202D1FFF7C2F801E0FFF7AFF800EB7A
:1020B000C00101EB0012606864218000B2FBF0F304
:1020C000B3FBF1F36FF018067343B2FBF0F5B2FB0C
:1020D000F0F605EB8305322303EB0515B5FBF1F5AF
:1020E000B6FBF1F605F0F00505EB0615B2FBF0F6D0
:1020F000B2FBF0F0B0FBF1F06FF01802504306EBCA
:10210000800003EB0010B0FBF1F0216800F00F003D
:102110002844886070BD0000003801402DE9F0417E
:10212000984617460E460446069D27E0681C25D0B3
:102130002DB1FEF743FEA0EB0800A8421ED920688F
:102140000C3050E8001F21F4D07140E80012002A42
:10215000F5D12068143050E8001F21F0010140E85B
:102160000012002AF5D1202084F8410084F84200B2
:10217000002084F840000320BDE8F081206800685A
:1021800036EA000004D00020B842CFD00020F3E7A8
:102190000120F9E70148FFF725BA00009800002068
:1021A000FEE7000018B103498861002070476FF016
:1021B00005007047180000206FF0050228B121B11A
:1021C000034AC2E902010020704710467047000030
:1021D00018000020032802D96FF005007047034A59
:1021E000106211700020D0617047000018000020BC
:1021F0002DE9FC5F0D46064628446FF0050C90283B
:102200006DD24D4C4FF0FF092046D4F82080426833
:102210004FF0AA0A4FF0270BF7B2C6F30721B8F127
:10222000000F11D04FF6FF7000EA450320466FF013
:10223000030E0078B8F1010F1ED0B8F1020F3BD0A9
:10224000B8F1030F76D14BE0042D73D882B18DF82D
:1022500000908DF801A08DF802B08DF804108DF873
:10226000037005216846904734A000F09DF95EE0B8
:1022700034A000F099F949E082B35B1DB3F5807F8B
:1022800033D88DF8000003208DF80100280A8DF85E
:1022900002108DF804008DF803708DF805500621AA
:1022A000684600F091F9010A8DF806108DF80700D4
:1022B00008216846626839E0032D3BD823696BB179
:1022C0008DF800908DF801A08DF802B08DF8041003
:1022D0008DF8037005226946984728E016E029E04A
:1022E000E7689FB1B3F5807F02D97046BDE8FC9FD7
:1022F0004006F1B2000E154AB847012817D16269AD
:1023000022B11249002001F580730BE06FF0040048
:10231000ECE700BF31F8107000EB060C401C23F80E
:102320001C7080B2A842F5D3294630469047002061
:102330006662DBE76046D9E718000020656D7074BF
:10234000790000006572726F720D0A00E0000020D3
:1023500018B103494861002070476FF005007047CD
:102360001800002070B504460622002100B2FEF7D6
:10237000AEFA40B14BF28851692000F0A1F86FF03D
:102380000205A0B902E06FF0050070BD0949086AB6
:10239000012801D010B104E0142000E00120896977
:1023A0008847A1B21F2000F08BF80028EDD0284606
:1023B00070BD00001800002070B5044607220121FE
:1023C00000B2FEF784FA40B14BF28851692000F068
:1023D00077F86FF00205A0B902E06FF0050070BD5C
:1023E0000949086A012801D010B104E0142000E076
:1023F000012089698847A1B2042000F061F8002813
:10240000EDD0284670BD00001800002010B54BF23A
:102410008851692000F054F86FF0020480B909492E
:102420000A6A012A01D012B104E0142000E0012060
:10243000896988470121084600F042F8002800D049
:10244000204610BD1800002010B54BF288516920BD
:1024500000F036F86FF0020480B909490A6A012ACF
:1024600001D012B104E0142000E0012089698847FE
:102470000721012000F024F8002800D0204610BDDC
:102480001800002010B54BF28851692000F018F8B0
:102490006FF0020480B909490A6A012A01D012B119
:1024A00004E0142000E00120896988470021012010
:1024B00000F006F8002800D0204610BD18000020CB
:1024C0002DE9FC476FF0050A90281AD2354CCAB2A4
:1024D0002346D4F82080FF27090A5B686FF0040CBC
:1024E0004FF0AA09C6B2B8F1000F0DD02546B8F1D9
:1024F000010F2D7817D0B8F1020F31D0B8F1030FCA
:1025000040D05046BDE8FC87DBB38DF800708DF8F5
:1025100001908DF802608DF804108DF803200521DC
:10252000684698473AE063B306238DF800508DF86B
:102530000130000A8DF802008DF804108DF8036058
:102540008DF805201946684600F03EF8010A8DF81E
:1025500006108DF8070062680821684690471DE064
:10256000236973B18DF800708DF801908DF80260C9
:102570008DF803208DF804100522694628469847F7
:102580000CE00DE0A4685CB18DF800208DF801101E
:10259000C1B26806000E02236A46A0470020B1E7D8
:1025A0006046AFE7180000200FB4054B10B503A933
:1025B000044A029800F000F910BC5DF814FB00001A
:1025C000E92E000840000020F0B5FF23084E1C460D
:1025D000002206F5807705E0855C5D40735D634011
:1025E0007C5D521C8A42F7DB44EA0320F0BD000008
:1025F0006A3100080907090E002804DB00F1E02019
:1026000080F80014704700F00F0000F1E02080F81F
:10261000141D704702E008C8121F08C1002AFAD131
:1026200070477047002001E001C1121F002AFBD152
:10263000704700002DE9FF5F82B00021DDE9043022
:10264000020DDDF840B0034318D044F61050A2F25A
:10265000FF3242431514119801281FD0A5EB0B003F
:10266000401C5FEA000A4FF000064E4FDFF8389139
:10267000B046504615D5CAF1000413E01198012464
:102680004AA3012801D16FEA0B010298119AC0E90F
:102690000031C0E9024206B0BDE8F09FCBF1000076
:1026A000DFE704460021404A491842EB0450CDE9D7
:1026B000001012E0E00707D032463B46404649464C
:1026C000FDF705FF8046894632463B4610461946CF
:1026D000FDF7FDFE06460F466410002CEAD1DDE949
:1026E0000401DDE90023BAF1000F06DAFDF7EFFE81
:1026F00042464B46FDF7EBFE05E0FDF75AFF42462A
:102700004B46FDF756FF04460E460022284BFDF7C8
:10271000D7FF03D84FF0FF30014607E00022254BDA
:1027200020463146FDF72CFEFDF7B2FF102409E0EC
:10273000002C0ADB0A220023FDF7BAFD039B30328E
:102740001A55641E50EA0102F2D1641C039AC4F1C6
:1027500011031444119A012A03D0012208430DD118
:102760000AE0084304D000204FF0110B119072E7EB
:10277000A3EB0B056D1E0DE05B4504DD4FF0000281
:1027800005F1010504E003DA4FF00002A5F10105AF
:10279000002AECD002981199C0E90231C0E9004545
:1027A00079E70000000014400000F03F3000000016
:1027B0000000F0430000E03F2DE9FF4F95B09B463D
:1027C0008946064600250FE2252877D100242746B2
:1027D000F84A0121059400E0044316F8013F203B2C
:1027E00001FA03F01042F7D130782A2811D06FF0A7
:1027F0002F033078A0F13002092A16D8059A44F048
:10280000020402EB820203EB42021044761C0590A4
:10281000EFE759F8042B0592002A03DA504244F4FA
:102820000054059044F00204761C30782E2816D10E
:1028300016F8010F44F004042A280DD06FF02F027F
:102840003078A0F13003092B09D807EB870302EB9E
:102850004303C718761CF3E759F8047B761C3078DD
:102860006C280FD006DC4C2817D068280DD06A28B9
:1028700014D104E0742810D07A280FD10DE044F46C
:1028800000140AE044F4801401E044F44014727827
:10289000824202D104F58014761C761C30786628BA
:1028A0000BD013DC582877D009DC002875D04528D8
:1028B000F6D04628F4D047281AD19DE118E06328C5
:1028C00035D0642879D0652812D195E1702873D06D
:1028D00008DC6728F1D069286FD06E280DD06F28EA
:1028E00006D1B5E073282CD0752875D0782874D01F
:1028F0005A46179990476D1C75E1C4F3025002289F
:1029000009D003280DD0D9F8001004280DD00D608F
:1029100009F1040967E1D9F80010EA17C1E900528A
:10292000F6E7D9F800100D80F2E70D70F0E719F81E
:10293000041B8DF8001000208DF80100EA460120EC
:1029400003E059F804AB4FF0FF3061074FF000018E
:1029500002D40DE008F101018846B9420FDA804542
:10296000F8DB1AF808100029F4D108E008F1010199
:1029700088468142FADB1AF808100029F6D105983A
:102980005B46A0EB080721463846179A00F094FAF8
:10299000284400EB080507E04DE029E10DE01AF8B6
:1029A000010B5A4617999047B8F10108F7D25B46D8
:1029B00021463846179A13E142E00A220092C4F3F6
:1029C00002524FF0000A022A08D059F804CB032A19
:1029D0004FEAEC710AD00DE029E02AE009F1070185
:1029E00021F00702F2E802C1914609E00FFA8CFCDF
:1029F0004FEAEC71042A03D14FFA8CFC4FEAEC71D8
:102A0000002907DA0A460021DCF1000C61EB020123
:102A10002D2202E0220504D52B228DF8042001226C
:102A200003E0E20701D02022F7E7904659E00A21AF
:102A300002E010220DE010214FF0000A00910BE09F
:102A400010224FF0000A44F004040827009203E02B
:102A500008224FF0000A0092C4F30252022A05D065
:102A600059F804CB0021032A08D009E009F1070135
:102A700021F00702F2E802C1914605E01FFA8CFC42
:102A8000042A01D10CF0FF0C4FF00008220728D5D2
:102A9000702806D0009B83F0100353EA0A0305D088
:102AA0000EE040228DF80420012208E05CEA0102D9
:102AB00006D030228DF804208DF8050002229046C1
:102AC000009B83F0080353EA0A030AD15CEA01027F
:102AD00001D1620705D530228DF804204FF001089E
:102AE0007F1E582804D034A003900EA802900DE059
:102AF00036A0F9E753466046009AFDF7D9FB8446B5
:102B00000398825C0298401E029002705CEA010009
:102B1000F0D1029806A9081A00F1200A600702D530
:102B200024F4803400E00127574502DDA7EB0A00BA
:102B300000E0002000EB0A01009005984144401A93
:102B40000590E00306D45B462146179A059800F0ED
:102B5000B3F90544002706E001A85A46C05D17995D
:102B600090476D1C7F1C4745F6DBE0030CD55B46A8
:102B70002146179A059800F09FF9054404E030209B
:102B80005A46179990476D1C0099481E00900029DD
:102B9000F5DC08E0029802995A460078491C029137
:102BA000179990476D1CBAF10001AAF1010AF1DCF6
:102BB00065E1000009280100303132333435363701
:102BC0003839616263646566000000003031323379
:102BD0003435363738394142434445460000000019
:102BE00000F058F90544761C307800287FF4ECADED
:102BF00019B02846BDE8F08F620700D4062709F116
:102C0000070222F0070CFCE80223E14603F000482B
:102C10005FEA080C02D00FF2702C0DE05FEA045C52
:102C200002D50FF2682C07E05FEAC47C02D00FF2F5
:102C3000602C01E0AFF2700C4FF0FF3823F000433E
:102C4000CDF850C065280CD006DC452809D04628B0
:102C50001DD047283DD13DE0662818D067287ED199
:102C600038E00021112F01DB112000E0781CCDE9B4
:102C7000000106A90EA8FFF7DDFCDDE90F010E9AA1
:102C800003910021009207F1010A04914DE04FF0F9
:102C900000400097CDE9011006A90EA8FFF7CAFC75
:102CA000DDE90F0203920E9B11990022DDF80CA0C2
:102CB0000093049211B9791C00EB010AB7EB0A00EA
:102CC00004D4C0F1FF3007F1010A0490AAEB070019
:102CD000019044E0012F00DA01270021112F01DDCE
:102CE000112000E03846CDE9000106A90EA8FFF743
:102CF000A1FCDDE90F010E9A0391002104910092DD
:102D0000BA4621070CD40399514500DA8A46BAF134
:102D1000010F05DD009AAAF10101515C302908D0AC
:102D2000B84202DA10F1040F06DA0121CDE90110F0
:102D300015E0AAF10101E9E7002805DC0499014446
:102D40000491AAEB000102E0411C514500DD8A46D6
:102D50000499401A401C01904FF000400290200757
:102D600004D40198504501DBCDF8048000208DF893
:102D70004F0002980DF14F07B0F1004F25D02B20E6
:102D80000E9002984FF0020800280CDA40420290A0
:102D90002D200E9007E00A210298FDF773FA3031DA
:102DA000029007F8011DB8F10001A8F10108F2DC5A
:102DB00002980028EFD1791E0E980870307800F044
:102DC000200040F0450007F8020D12A8C01B00F1DA
:102DD00007081498007800B1012000EB0A0101985F
:102DE00001EBE07105984144401A401E0590E00354
:102DF00006D45B462146179A059800F05DF8054415
:102E00001498007818B15A46179990476D1CE00342
:102E100024D55B462146179A059800F04DF80544E5
:102E20001CE00498002807DBDDE90301884203DD8C
:102E30000098405C179901E0179930205A46904756
:102E4000049805F10105401C04900198401E019072
:102E500004D12E205A46179990476D1CBAF10001F3
:102E6000AAF1010ADDDC05E017F8010B5A461799B3
:102E700090476D1CB8F10001A8F10108F4DC5B4635
:102E80002146179A0598ABE62D0000002B000000A4
:102E9000200000002DE9F041044600251E4617469B
:102EA000880404D405E039462020B0476D1C641E18
:102EB000F9D52846BDE8F0812DE9F041044600250A
:102EC0001E469046C80301D5302700E0202788041D
:102ED00004D505E041463846B0476D1C641EF9D55F
:102EE0002846BDE8F081000013B54FF47A73012243
:102EF00069460248FEF71FFD00981CBD980000209F
:102F00008EB0FEF75DF8FEF7EDFFFEF7D5FEFEF79B
:102F100019FFFEF7E7FE50210020FFF75BF95E493D
:102F20005E48FFF749F95E48FFF712FA5D48FFF780
:102F300039F95D48FFF738FBFDF76AFC5BA0FFF746
:102F400033FB5B4D5BA0FFF72FFB0C213420FFF719
:102F50004FF94FF4FA70FDF723FEFDF7C1FCDFF8DF
:102F6000589199F800005FEA0008EBD000240DF1B9
:102F7000100A0DF11C0B6FF00E0700BF05EB4406A5
:102F800036F9680FFDF762F93946FDF753F9042168
:102F9000FDF750F94AF82400B6F90600FDF756F996
:102FA0003946FDF747F94549FDF712F94BF824007A
:102FB000B6F91200FDF74AF93946FDF73BF94049E9
:102FC000FDF706F90AA941F82400641C032CD5DB9F
:102FD0004C465FEAC87017D00698FDF740F9804666
:102FE00089460598FDF73BF906460F460498FDF71C
:102FF00036F98DE8C00302460B4632A0FFF7D4FA3B
:10300000207820F0010020702078800717D50998DB
:10301000FDF725F9804689460898FDF720F9064610
:103020000F460798FDF71BF98DE8C00302460B46D3
:103030002AA0FFF7B9FA207820F00200207020784B
:10304000400717D50C98FDF70AF9804689460B987A
:10305000FDF705F906460F460A98FDF700F98DE8D9
:10306000C00302460B4623A0FFF79EFA207820F00B
:1030700004002070207800077FF564AFB5F9783040
:10308000B5F97620B5F9741020A0FFF78DFA2078F5
:1030900020F00800207055E7FD1B0008671C0008A1
:1030A000D9090008A10B00086C33000831000000AA
:1030B000E001002032000000000000200000FA447F
:1030C000000034436163633A252E336620252E3396
:1030D0006620252E33660D0A000000006779726FA6
:1030E0003A252E336620252E336620252E33660D95
:1030F0000A000000616E676C653A252E3366202554
:103100002E336620252E33660D0A00006D61673A66
:1031100025642025642025640D0A0000C0120000EB
:1031200080250000004B00000096000000E1000038
:1031300000C20100008403000008070000100E0018
:10314000010202030405060708090A0B0C0D0E0F05
:103150001010000000000000000001020304060738
:103160000809000000000102030400C1814001C001
:10317000804101C0804100C1814001C0804100C147
:10318000814000C1814001C0804101C0804100C137
:10319000814000C1814001C0804100C1814001C027
:1031A000804101C0804100C1814001C0804100C117
:1031B000814000C1814001C0804100C1814001C007
:1031C000804101C0804100C1814000C1814001C0F7
:1031D000804101C0804100C1814001C0804100C1E7
:1031E000814000C1814001C0804101C0804100C1D7
:1031F000814000C1814001C0804100C1814001C0C7
:10320000804101C0804100C1814000C1814001C0B6
:10321000804101C0804100C1814001C0804100C1A6
:10322000814000C1814001C0804100C1814001C096
:10323000804101C0804100C1814001C0804100C186
:10324000814000C1814001C0804101C0804100C176
:10325000814000C1814001C0804100C1814001C066
:10326000804101C0804100C1814000C0C101C30351
:1032700002C2C60607C705C5C404CC0C0DCD0FCFCE
:10328000CE0E0ACACB0BC90908C8D81819D91BDB3E
:10329000DA1A1EDEDF1FDD1D1CDC14D4D515D7178E
:1032A00016D6D21213D311D1D010F03031F133F33E
:1032B000F23236F6F737F53534F43CFCFD3DFF3F8E
:1032C0003EFEFA3A3BFB39F9F83828E8E929EB2BBE
:1032D0002AEAEE2E2FEF2DEDEC2CE42425E527E74E
:1032E000E62622E2E323E12120E0A06061A163A3BE
:1032F000A26266A6A767A56564A46CACAD6DAF6F4E
:103300006EAEAA6A6BAB69A9A86878B8B979BB7BBD
:103310007ABABE7E7FBF7DBDBC7CB47475B577B70D
:10332000B67672B2B373B17170B05090915193533D
:10333000529296565797559594549C5C5D9D5F9F0D
:103340009E5E5A9A9B5B99595898884849894B8B3D
:103350008A4A4E8E8F4F8D4D4C8C448485458747CD
:103360004686824243834181804000000D0A2A2A1A
:103370002A2A2A2A2A2A2A2A2A2A2A2A2A2A2A2AAD
:103380002A2A2A2A207769742D6D6F74696F6E203E
:103390006E6F726D616C206578616D706C65092A65
:1033A0002A2A2A2A2A2A2A2A2A2A2A2A2A2A2A2A7D
:1033B0002A2A2A2A2A2A2A0D0A0000000D0A2A2A65
:1033C0002A2A2A2A2A2A2A2A2A2A2A2A2A2A2A2A5D
:1033D0002A2A2A2A2A2A20202020202020202020B1
:1033E00048454C5020202020202020202020202A2A
:1033F0002A2A2A2A2A2A2A2A2A2A2A2A2A2A2A2A2D
:103400002A2A2A2A2A2A2A0D0A0000002A2A2A2AD7
:103410002A2A2A2A2A2A2A2A2A2A2A2A2A2A2A2A0C
:103420002A2A2A2A2A2A2A2A2A2A2A2A2A2A2A2AFC
:103430002A2A2A2A2A2A2A2A2A2A2A2A2A2A2A2AEC
:103440002A2A2A2A2A2A2A2A2A2A2A2A2A2A2A2ADC
:103450002A2A2A2A2A2A2A2A2A2A0D0A00000000B1
:10346000554152542053454E443A6D5C725C6E2077
:1034700020204D61676E65746963206669656C64C0
:103480002063616C6962726174696F6E2C4166744D
:1034900065722063616C6962726174696F6E20731A
:1034A000656E643A202020655C725C6E202020747A
:1034B0006F20696E64696361746520746865206556
:1034C0006E640D0A000000000D0A2A2A2A2A2A2A00
:1034D0002A2A2A2A2A2A2A2A2A2A2A2A2A2A2A2A4C
:1034E0002A2A09205749545F53444B5F44454D4FA6
:1034F000092A2A2A2A2A2A2A2A2A2A2A2A2A2A2A4D
:103500002A2A2A2A2A2A2A2A2A0000002C350008D8
:103510000000002044000000142600087035000858
:1035200044000020BC0600002426000800FF000024
:1035300000C20100010000001000000000000000B7
:103540000024F400FF000000000000000000000064
:10355000000000000000000000000000000000006B
:10356000000000000000000000000000000000005B
:0400000508000131BD
:00000001FF
