:020000040800F2
:10000000F806002045010008B31800082118000870
:10001000B1180008D5080008CD1B0008000000003A
:10002000000000000000000000000000B7180008F9
:10003000D909000800000000B5180008C918000818
:100040005F0100085F0100085F0100085F01000810
:100050005F0100085F0100085F0100085F01000800
:100060005F0100085F0100085F0100085F010008F0
:100070005F0100085F0100085F0100085F010008E0
:100080005F0100085F0100085F0100085F010008D0
:100090005F0100085F0100085F0100085F010008C0
:1000A0005F0100085F0100085F0100085F010008B0
:1000B0005F0100085F0100085F0100085F010008A0
:1000C0005F0100085F0100085F0100085F01000890
:1000D0005F010008B51B0008C11B00085F01000894
:1000E0005F0100085F0100085F0100085F01000870
:1000F0005F0100085F0100085F0100085F01000860
:100100005F0100085F0100085F0100085F0100084F
:100110005F0100085F0100085F0100085F0100083F
:100120005F0100085F0100085F0100085F0100082F
:10013000DFF80CD000F0E2FA00480047AD270008D5
:10014000F80600200648804706480047FEE7FEE71D
:10015000FEE7FEE7FEE7FEE7FEE7FEE7FEE7FEE777
:100160002919000831010008202A04DB203A21FA6D
:1001700002F00021704721FA02F3D040C2F12002C0
:10018000914008431946704740EA01039B0703D09A
:1001900009E008C9121F08C0042AFAD203E011F8C6
:1001A000013B00F8013B521EF9D27047D2B201E088
:1001B00000F8012B491EFBD270470022F6E710B56C
:1001C00013460A4604461946FFF7F0FF204610BDC5
:1001D00080EA010210B502F00043400022D04A003C
:1001E0001FD0010E01EB1261C0F35600C2F356029C
:1001F00040F4000042F40002A0FB022000047F391A
:10020000140400D0401C50EA124001D44000491EA2
:10021000C2B20C0604EBD010401C4008802A02D069
:1002200003E0002010BD20F00100002900DA0020CA
:10023000184310BD420005D0C0F3C752524291424C
:1002400001DC0020704700EBC1507047C10F80EA0D
:10025000E0700844CA079623002100F068B896238E
:100260000022114600F063B800F0004230F0004078
:100270000AD0C10D01F56071C0F3160042EA0151C8
:10028000C20840071143704700200146704730B54F
:100290000B46014600202022012409E021FA02F544
:1002A0009D4205D303FA02F5491B04FA02F52844DE
:1002B000151EA2F10102F1DC30BD2DE9F05F05460B
:1002C000002092469B4688460646814640241BE015
:1002D0002846414647462246FFF746FF53465A46C0
:1002E000C01A914110D311461846224600F018FA60
:1002F0002D1A67EB01084F4622460120002100F02D
:100300000FFA17EB00094E41201EA4F10104DFDCB7
:10031000484631462A464346BDE8F09F0029A8BF1B
:100320007047401C490008BF20F00100704710B41E
:10033000B0FA80FC00FA0CF050EA010404BF10BCD3
:10034000704749B1CCF1200421FA04F411FA0CF100
:1003500018BF012121430843A3EB0C01CB1D4FEA39
:1003600000614FEA102042BF002010BC704700EB34
:10037000C35010440029A4BF10BC7047401C490062
:1003800008BF20F0010010BC70472DE9FE4F8046E9
:1003900081EA0300C00F0C46009021F0004123F0D9
:1003A0000045B8EB0200A94105D2404621469046DF
:1003B0001C460B46024623F00040104347D0270D51
:1003C000C7F30A00C3F30A510290401A0190402873
:1003D0006BDAC3F3130040F4801B0098924620B1FF
:1003E0000023D2EB030A63EB0B0B01985946C0F1D3
:1003F0004002504600F094F906460D4650465946D4
:10040000019A00F09CF910EB08006141002487EA92
:10041000115284EAE7731A4340D0009A62B3019AFA
:10042000012A4FEA075215DC001B61EB02014FF075
:10043000004202EA0752CDE90042001C41F580115A
:1004400032462B4600F09CF903B0BDE8F08F4046E1
:100450002146F9E7001B61EB0201001C41F5801306
:1004600000185B412018A2F5001747EB030140EA92
:10047000D570B6196D4111E06D084FEA360645EAB0
:10048000C0754FEA0752001B61EB0201001C41F5E9
:10049000801149084FEA30000019514132462B467D
:1004A00003B0BDE8F04F00F05CB9009801224000B5
:1004B0000023D0EB020263EBE073009821464FEA81
:1004C000E074B8EB000061EB0401E9E783F000435E
:1004D0005BE781F0004158E72DE9FE4F81EA030414
:1004E00004F0004421F0004100944FF0000B23F091
:1004F000004350EA01045ED052EA03045BD0C3F328
:100500000A54C1F30A552C44A4F2F3340194A0FB1D
:100510000254C1F3130141F48011C3F3130343F4F4
:10052000801301FB024400FB034E840A970A44EA4D
:10053000815447EA8357A4FB076802958D0A05FB9F
:1005400007854FEA932C04FB0C542705029D4FEAC4
:10055000065847EA1637B5EB08056EEB070C870E11
:10056000920E47EA811742EA8312A7FB0201B6EB1B
:100570000B0164EB00042B0D43EA0C335E1844EBD3
:100580001C50DA465146E7FB0201C5F313044FEA5B
:100590000B3343EA14534FEA0432019C43EA060347
:1005A000A4F10C040294009CCDE900B400F0E8F83A
:1005B00003B0BDE8F08F00200146F9E72DE9F04DCA
:1005C00081EA030404F0004B21F0004514464FF08B
:1005D000000A23F0004150EA050220D054EA01024B
:1005E0001DD0C5F30A570246C5F31303C1F3130028
:1005F000C1F30A5640F4801543F48013A7EB0608B4
:10060000101BD64608F2FD3873EB050002D308F143
:10061000010801E092185B41B8F1000F03DA0020F5
:100620000146BDE8F08D00204FF480110646844657
:100630000EE0171B73EB050705D3121B63EB0503D5
:1006400006434CEA010C49084FEA300092185B411E
:1006500050EA0107EDD152EA030012D082EA040009
:1006600083EA0501084305D0101BAB4106D20122E5
:10067000002306E000224FF0004302E06FF0010289
:1006800053101AEB06004CEB085110EB0A0041EB3B
:100690000B01BDE8F04D00F064B8C1F30A52C1F39C
:1006A000130140F2FF3341F480119A4202DA002034
:1006B0000146704740F233439A42A2F2334202DCD1
:1006C0005242FFF751BD00F02BB8000030B5041EB8
:1006D00071F1000404DB4FF00044404264EB01017F
:1006E000141E73F1000405DB1C464FF00043524218
:1006F00063EB0403994208BF904230BD064C074D9E
:1007000006E0E06840F0010394E8070098471034E1
:10071000AC42F6D3FFF710FD802C0008A02C000897
:10072000202A04DB203A00FA02F1002070479140B1
:10073000C2F1200320FA03F3194390407047202AA6
:1007400006DBCB17203A41FA02F043EAE07306E0F9
:1007500041FA02F3D040C2F1200291400843194609
:10076000704710B5141E73F1000408DA401C41F103
:10077000000192185B411A4301D120F0010010BD25
:100780002DE9F04D92469B4611B1B1FA81F202E09B
:10079000B0FA80F220329046FFF7C2FF04460F46BF
:1007A00040EA0A0041EA0B0153465A46084313D077
:1007B000114653EA010019D0C8F140025046FFF734
:1007C000D3FC05460E46504659464246FFF7A8FF61
:1007D000084305D0012004E020463946BDE8F08DED
:1007E0000020054346EAE0762C4337430A98630528
:1007F000E40AA0EB08000022FD0A44EA47540A304C
:1008000002D500200146E9E7010510196941DDE93B
:10081000084500196941BDE8F04DA2E72DE9F04116
:100820008AB0242215496846FFF7AEFC0024144D17
:10083000E846274658F82400686001F001F80226CF
:100840006F700321342001F0D1F9642000F082F9A7
:10085000687838B158F824100AA001F0FBFA0AB001
:10086000BDE8F081761EEBD1641C092CE2DB0BA005
:1008700001F0F0FA0FA001F0EDFAF0E7E02900082E
:1008800000000020256420626175642066696E6442
:100890002073656E736F720D0A0D0A0063616E201E
:1008A0006E6F742066696E642073656E736F720D6F
:1008B0000A000000706C6561736520636865636B96
:1008C00020796F757220636F6E6E656374696F6EE9
:1008D0000D0A0000FEE7000010B50023104A15E0E5
:1008E000362809D039280BD03C2812D054783F281C
:1008F00013D044F0800406E0547844F0010402E090
:10090000547844F00204401C54705B1C8B42E7D3C3
:1009100010BD547844F00804F5E744F00404F2E70D
:10092000000000202DE9F04700270425DFF8A08013
:10093000DFF8A09050383E4601F1060A102845D253
:10094000DFE800F01108130C1517191B1D1F2144B7
:100950004444442334240325402702E03D24032556
:100960002E27012613E0302411E037242BE03A240F
:1009700029E041240BE0452409E0492407E04D2407
:1009800005E0512403E0552401E0D8F82440032A6F
:1009900019D04DB16A0009EB4400FFF7F5FBD8F818
:1009A0001420294620469047002E0FD0720009EBF4
:1009B00047005146FFF7E8FB31463846D8F8142087
:1009C000BDE8F047104703250026E3E7BDE8F087C0
:1009D00018000020D4010020704772B6FEE710B561
:1009E00090F821100022022905D00421816380F8AB
:1009F0002020012010BD01680B6823F00E030B605E
:100A000001680B6823F001030B6090F84030C46B61
:100A1000012101FA03F3636080F8211080F820209F
:100A2000104610BD2DE9F05F90F821100024022936
:100A300003D004218163012485E001680A6822F063
:100A40000E020A6001680A6822F001020A603F4E45
:100A50003E4FB215DFF8F4C0DFF8F090DFF8ECA0FD
:100A6000DFF8E8B0DFF8E4E00168783F1301150231
:100A7000ACF1640CA9F15009AAF13C0AABF1280BC6
:100A8000AEF1140E4FF48018B14227D9B9420ED0FE
:100A9000614512D049451DD0514518D0594518D04F
:100AA000714501D1424615E0294EB14201D10122E2
:100AB00010E0274E1436B14201D110220AE0244E34
:100AC0002836B14206D0224A3C32914201D11A4620
:100AD00000E02A461E49091F0A602BE0B94213D0E4
:100AE000614517D0494522D051451DD059451DD0EB
:100AF000714501D142461AE0B14202D14FF08072F5
:100B000015E0134EB14201D1012210E0104E14360F
:100B1000B14201D110220AE00D4E2836B14206D072
:100B20000B4A3C32914201D11A4600E02A4607495D
:100B300080394A60012180F82110002180F82010BE
:100B4000416B01B188472046BDE8F09F800002401C
:100B50000804024070B5044600F00AF90546601C1E
:100B600002D004480078044400F002F9401BA0427F
:100B7000FAD370BD080000202DE9F84FDFF8C891C6
:100B80000024A9F1040B23460F2709F1040AABF155
:100B9000040ED1E00125A54006EA0502AA4276D15D
:100BA000DFF8A8C14E68A6EB0C0866452BD00DDC1B
:100BB000032E34D005DC36B3012E19D0022E2FD1EE
:100BC0001BE0112E16D0122E2AD119E0B8F5881F7D
:100BD00019D006DCB8F5803F15D0B8F5801F1FD1BD
:100BE00011E0B8F5001F0ED0B8F5041F18D10AE0C7
:100BF000CB6815E0CB681B1D12E0CB6808330FE013
:100C0000CB680C330CE08B682BB1012B4FF0080341
:100C100003D0456104E0042302E0056100E0002305
:100C2000FF2A01D8064601E000F104064FEA8405D8
:100C300001D9A5F12005D6F8008007FA05FC28EABD
:100C40000C0803FA05F548EA0508C6F800804D6867
:100C5000ED0070D53E4DAE6946F00106AE61AD695E
:100C600024F0030605F0010500953A4D06EB050C4E
:100C7000DCF80850A607360F07FA06F825EA08053B
:100C8000DFF8D480404503D14FF0000825E052E062
:100C9000DFF8C880404502D14FF001081DE0DFF8C1
:100CA000C080404502D14FF0020816E0DFF8B48062
:100CB000404502D14FF003080FE0DFF8AC8040451B
:100CC00002D14FF0040808E0DFF8A080404502D1CF
:100CD0004FF0050801E04FF0060808FA06F848EA68
:100CE0000508CCF808804D68D9F80060ED024D4643
:100CF00001D5164300E096432E604D68DAF8006097
:100D0000AD02554601D5164300E096432E604D686E
:100D1000DBF80060AD035D4601D5164300E0964365
:100D20002E604D68DEF80060ED03754601D5164370
:100D300000E096432E60641C0A681646E2407FF489
:100D400029AFBDE8F88F0000080401400000111031
:100D5000001002400000014000080140000C01406A
:100D6000001001400014014000180140001C014027
:100D70000148806870470000080000200248816830
:100D8000027811448160704708000020074810B5C0
:100D9000016841F010010160032000F075F80F2098
:100DA00000F006F800F024F8002010BD00200240FA
:100DB00070B50D4D04464FF47A712878B1FBF0F010
:100DC0000A490968B1FBF0F000F0DCFA48B9102CD0
:100DD00007D200222146501E00F036F800206C6039
:100DE00070BD012070BD000008000020140000202C
:100DF0000C4808B5816941F001018161816901F008
:100E000001010091C16941F08051C161C06900F0E8
:100E1000805000900448416821F0E06141F0007189
:100E2000416008BD0010024000000140002809DBBD
:100E300000F01F02012191404009800000F1E020F4
:100E4000C0F8001170470000F0B40E4B1B680C4650
:100E5000C3F30223C3F10705042D00D90425191D8E
:100E6000072901D2002300E0DB1E012606FA05F166
:100E7000491E214099409E40761E16403143F0BCE9
:100E800001F00EB80CED00E0064900F0070208681A
:100E90004FF6FF03184040EA0220034A104308605F
:100EA000704700000CED00E00000FA052DE9F04766
:100EB0000F46050061D0434E306800F00700B8428D
:100EC00009D2306820F0070038433060306800F005
:100ED0000700B84251D128683B4C810712D5400722
:100EE00003D5606840F4E06060602878000703D5AF
:100EF000606840F4605060606068A96820F0F000AD
:100F0000084360602878C00728D06868012810D09E
:100F10002168022810D0890700292EDA616821F0A3
:100F2000030101436160FFF723FF804641F28839E6
:100F30000DE021688903EFE78901EDE7FFF718FF6E
:100F4000A0EB0801494502D90320BDE8F08760689D
:100F5000696800F00C00B0EB810FEFD1306800F051
:100F60000700B8420BD9306820F0070038433060E2
:100F7000306800F00700B84201D00120E5E728788A
:100F8000400705D56068E96820F4E06008436060C8
:100F90002878000706D56068296920F4605040EA87
:100FA000C100606000F038F86168084AC1F30311BD
:100FB000515CC8400649086006480068FFF7F8FE23
:100FC0000020C2E70020024000100240162A00085C
:100FD000140000200C0000200448054900684968FE
:100FE000044AC1F30221515CC8407047140000203C
:100FF00000100240262A0008044805490068496894
:10100000044AC1F3C221515CC8407047140000205B
:1010100000100240262A00080E4A51680E4801F0CE
:101020000C03042B11D0082B0FD10C48C1F38343C0
:10103000C903C05C0AD55168084AC1F34041921EF9
:10104000515C054A5043B0FBF1F0704704494843F6
:10105000704700000010024000127A00062A0008C3
:1010600000093D002DE9F84F040070D02078C04DF4
:10107000C00749D06868C0F38100012807D06868BC
:10108000C0F38100022809D16868C00306D528682A
:10109000800339D560680028E7D035E06068B0F596
:1010A000803F0BD010B1B0F5A02F11D0286820F4EC
:1010B00080302860286820F4802002E0286840F40E
:1010C00080302860606890B1FFF752FE06460AE063
:1010D000286840F480202860F0E700BFFFF748FE52
:1010E000801B642873D828688003F7D50CE0FFF7CD
:1010F0003FFE064605E000BFFFF73AFE801B64286E
:10110000F0D828688003F7D420789A4E80074FF0F3
:1011100001094FF0000839D5686810F00C0F07D0AE
:101120006868C0F38100022809D16868C00306D44A
:101130002868800714D52069012808D110E02069AB
:10114000B0B1C6F80090FFF713FE074605E00AE1CC
:10115000FFF70EFEC01B0228C4D828688007F7D509
:101160002868616920F0F80040EAC10028600DE0BD
:10117000C6F80080FFF7FCFD074604E0FFF7F8FD26
:10118000C01B022823D828688007F7D420780007DE
:101190002CD57948A169D9B1C0F80090FFF7E8FDD6
:1011A000074604E0FFF7E4FDC01B02280FD8686A79
:1011B0008007F7D571484FF4FA510068B0FBF1F0A1
:1011C000009000BF0098411E0091FAD20EE080E02E
:1011D000C0F80080FFF7CCFD074604E0FFF7C8FD2C
:1011E000C01B022875D8686A8007F7D420784007AA
:1011F00060D5E8690027C00008D4E86940F0805055
:10120000E861E869012700F0805000905C480168BF
:10121000C90513D40168834641F480710160FFF76A
:10122000A7FD824606E000BFFFF7A2FDA0EB0A0083
:1012300064284ED8DBF80000C005F5D5E068012829
:101240000AD008B1052813D0286A20F001002862CE
:10125000286A20F0040002E0286A40F001002862B9
:10126000E06841F2883B98B1FFF782FD82460BE0CF
:10127000286A40F004002862EEE700BFFFF778FD1F
:10128000A0EB0A0159455AD8286A8007F6D50CE028
:10129000FFF76EFD824605E0FFF76AFDA0EB0A014D
:1012A00059454CD8286A8007F6D41FB1E86920F068
:1012B0008050E861E06988B36968C1F3810102295F
:1012C00044D00228C6F8608004D0FFF751FD0446E0
:1012D00038E034E0FFF74CFD074604E0FFF748FD37
:1012E000C01B02282BD828688001F7D4206AB0F5EB
:1012F000803F05D16868A16820F400300843686029
:10130000D4E908010843696821F47411084368604E
:10131000C6F86090FFF72CFD044606E025E000BF0C
:10132000FFF726FD001B022809D828688001F7D5A1
:101330001BE000BFFFF71CFD001B022802D90320A1
:10134000BDE8F88F28688001F4D40EE00128F7D0BA
:101350006868226A00F48031914204D1616A00F425
:101360007010884201D00120EAE70020E8E7000081
:10137000001002400000424280044242140000205B
:101380000070004010B5401EB0F1807F01D30120F5
:1013900010BD4FF0E02460610F21601700F080FD68
:1013A0000020A06107202061002010BD7047704719
:1013B000F8B5016804460868CA684B6910F00F0F59
:1013C0004FF0000559D003F0010602F4907737433F
:1013D00065D0C10705D0D10503D5616C41F001018D
:1013E0006164410705D5D90703D0616C41F0020162
:1013F0006164810705D5D90703D0616C41F0040110
:101400006164010707D502F02001314303D0616C0C
:1014100041F008016164616C00293AD0800604D56E
:10142000900602D5204600F0AFFA20684069616C52
:10143000C0F38010090700D460B3204600F07DFAA5
:1014400020684069400621D52068143050E8001F0C
:1014500021F0400140E80012002AF5D1E06BA8B16C
:101460006D494163E06BFFF7DDFA002811D0E06BB6
:10147000416B01B0BDE8F040084783060FD59306E5
:101480000DD52046BDE8F84000F07EBA2046FFF7B3
:101490008EFFF8BD2046FFF78AFF6564F8BD266B16
:1014A0002023012E7CD1C6067AD5D60678D50868C9
:1014B0004868009048694FF00206400640D5E16B4D
:1014C000086840680004000CE8D0A28D8242E5D98B
:1014D000E085886920282DD020680C3050E8001F56
:1014E00021F4807140E80012002AF5D12068143000
:1014F00050E8001F21F0010140E80012002AF5D158
:101500002068143050E8001F21F0400140E800122C
:10151000002AF5D184F84230256320680C3050E869
:10152000001F21F0100140E80012002AF5D1E06B05
:10153000FFF755FA6663A08DE18D401A81B22AE06B
:10154000A08DE18D401A81B2E08D0028A6D000293F
:10155000A4D022680C3252E8000F20F4907042E8C8
:101560000007002FF5D12068143050E8002F22F03A
:10157000010240E80027002FF5D184F842302563AE
:1015800020680C3050E8002F22F0100240E80023C1
:10159000002BF5D166632046FFF708FFF8BDFFE793
:1015A00005062BD5150629D594F841002128F5D13B
:1015B000A068B0F5805F01D12069B0B1206A411CFC
:1015C0002162216800784860E08C401E0004000C15
:1015D000E084E3D12068C16821F08001C160206807
:1015E000C16841F04001C160D8E7206A0088C0F3BB
:1015F00008004860206A801C2062E5E74006CDD5DF
:101600005006CBD5CA68204622F04002CA6084F852
:10161000413000F004F9C1E72B19000870B504004F
:1016200004D094F84100002510B106E0012070BDFF
:1016300084F84050204600F023F8242084F841002C
:101640002068C16821F40051C160204600F0FEF915
:101650002068016921F4904101612068416921F00D
:101660002A0141612068C16841F40051C16065648C
:10167000202084F8410084F842006563002070BD9A
:1016800070B586B0002400940194029403942E4E09
:1016900003682E49022003222D4DB34226D18B69C7
:1016A00043F480438B618B6903F4804304938B691B
:1016B00043F004038B618969039201F004010491F2
:1016C0000102CDE9001069462846FFF755FA2815B2
:1016D000CDE90004694628460294FFF74DFA00223E
:1016E00011462520FFF7B0FB252028E0194EB34214
:1016F00027D1CB6943F40033CB61CB6903F40033CA
:1017000004938B6943F004038B618969039201F0B0
:10171000040104910621CDE9001069462846FFF72F
:101720002BFA0820CDE90004694628460294FFF709
:1017300023FA002211462620FFF786FB2620FFF71A
:1017400075FB06B070BD000000380140001002407B
:10175000000801400044004010B5044600680749F5
:1017600088420AD10648007800F0EAFA2046BDE82F
:1017700010400122024900F0C5B910BD00440040EC
:10178000000000202DE9F843044690F841001F4670
:1017900016460D46202802D00220BDE8F8837DB110
:1017A00076B100206064212084F84100FFF7E0FA60
:1017B000A6848046E684A068B0F5805F02D003E08E
:1017C0000120EAE7206910B12E4600250EE0002630
:1017D0000CE08021204600F0B0F9A0B9AEB116F8B7
:1017E000010B21684860E08C401EE084E08C434699
:1017F0004FF0000200970028EBD14FF04001204647
:1018000000F09BF930B10320C7E735F8020BC0F3B5
:101810000800E6E7202084F841000020BDE770477B
:10182000FEE70000054808B5816941F004018161C7
:10183000806900F00400009008BD00000010024024
:101840000C4810B50A4901604FF4E13141600021B4
:1018500081600C22C160C0E904128161C161FFF79F
:10186000DDFE002803D0BDE81040FFF7B6B810BD7C
:1018700000380140440000200C4810B50A490160BE
:101880004FF416514160002181600C22C160C0E913
:1018900004128161C161FFF7C1FE002803D0BDE8D9
:1018A0001040FFF79AB810BD004400408C000020A3
:1018B000FEE7FEE7704770478B008AB20146014899
:1018C000FFF760BF8C000020FFF758BA30B58FB02B
:1018D00028216846FEF771FC14210AA8FEF76DFC6A
:1018E00001210804CDE9001000240294022504918E
:1018F000CDE907504FF4E01009906846FFF7B2FBBE
:1019000008B172B6FEE70F20CDE90A058020CDE9C7
:101910000C0402210AA80E94FFF7C8FA002801D08F
:1019200072B6FEE70FB030BD704710B5406A0021B7
:10193000C185C184FFF73BFD10BD01680C3151E842
:10194000002F22F4907241E80023002BF5D10168AA
:10195000143151E8002F22F0010241E80023002B4E
:10196000F5D1016B012909D101680C3151E8002F33
:1019700022F0100241E80023002BF5D1202180F84D
:10198000421000210163704708B590F842102229E7
:1019900001D0022008BD82684FF480539A4201D1E1
:1019A000016921B1816A9A421BD04AB10AE00268FA
:1019B000816A5268C2F308020A80816A891C08E0C1
:1019C000026972B10268526802F07F020A70816A8D
:1019D000491C8162C18D491E0904090CC18503D0CF
:1019E0001BE002685268F1E70168CA6822F0200231
:1019F000CA600168CA6822F48072CA6001684A69D4
:101A000022F001024A61202180F842100021416346
:101A1000026B012A03D0FFF79FFE002008BD01637F
:101A200001680C3151E8002F22F0100241E8002338
:101A3000002BF5D101680A68D20602D50A68496808
:101A40000091818DFFF7B2FCE7E7000070B5044616
:101A500000680169E26821F4405111430161216984
:101A6000A0680843616908432168CA6841F20C63B1
:101A70009A430243CA6020684169A26921F4407117
:101A8000114341611E492068884202D1FFF7B4FA30
:101A900001E0FFF7A1FA00EBC00101EB0012606862
:101AA00064218000B2FBF0F3B3FBF1F36FF0180692
:101AB0007343B2FBF0F5B2FBF0F605EB830532237E
:101AC00003EB0515B5FBF1F5B6FBF1F605F0F005F6
:101AD00005EB0615B2FBF0F6B2FBF0F0B0FBF1F04F
:101AE0006FF01802504306EB800003EB0010B0FBD0
:101AF000F1F0216800F00F002844886070BD0000FC
:101B00000038014081628285C28500214164222122
:101B100080F84210016921B10168CA6842F48072FC
:101B2000CA6001684A6942F001024A610068C168FE
:101B300041F02001C160002070472DE9F041984636
:101B400017460E460446069D27E0681C25D02DB199
:101B5000FFF70EF9A0EB0800A8421ED920680C3050
:101B600050E8001F21F4D07140E80012002AF5D19E
:101B70002068143050E8001F21F0010140E80012F5
:101B8000002AF5D1202084F8410084F8420000208A
:101B900084F840000320BDE8F0812068006836EA40
:101BA000000004D00020B842CFD00020F3E701208D
:101BB000F9E700000148FFF7FBBB000044000020EC
:101BC0000148FFF7F5BB00008C000020FEE7000095
:101BD000032802D96FF005007047034A10621170A4
:101BE0000020D06170470000180000202DE9FC5F44
:101BF0000D46064628446FF0050C90287CD2494CCF
:101C00006FF004092046D4F8208042684FF0FF0AA4
:101C10004FF0AA0B4FF0270EF7B2C6F30721B8F129
:101C2000000F0FD04FF6FF7000EA45032046B8F1D1
:101C3000010F007816D0B8F1020F33D0B8F1030FBE
:101C40006ED142E0042D6BD8F2B38DF800A08DF870
:101C500001B08DF802E08DF804108DF803700521B5
:101C6000684659E082B35B1DB3F5807F32D88DF8AA
:101C7000000003208DF80100280A8DF802108DF86D
:101C800004008DF803708DF805500621684600F0B9
:101C9000F1F8010A8DF806108DF807000821684652
:101CA000626839E0032D3BD823696BB18DF800A041
:101CB0008DF801B08DF802E08DF804108DF80370F6
:101CC00005226946984728E017E0E768AFB1B3F509
:101CD000807F03D96FF00300BDE8FC9F4006F1B29E
:101CE000000E114AB847012817D162692AB10E497E
:101CF000002001F580730BE012E04846ECE700BFDE
:101D000031F8107000EB060C401C23F81C7080B2F8
:101D1000A842F5D329463046904700206662DBE7AB
:101D20006046D9E718000020D400002018B103490C
:101D30004861002070476FF00500704718000020D0
:101D40002DE9FC413B4C6169002955D03A49E269D3
:101D50008854521CE261206A002630B101282FD03D
:101D6000022865D0032860D162E00878552804D0A5
:101D7000521E3148491CE2613CE00B2A55D30A252A
:101D80002D4F00204FEA000317F803C05B1C60448E
:101D9000C0B2AB42F8D38B7A8342E9D14888ADF820
:101DA00000008888ADF80200C888ADF804000889F2
:101DB000ADF80600487804226946FEF7B3FD37E027
:101DC000022A32D948780328D2D18878401D90421F
:101DD00012D888180D4630F8020C921E47BA91B2FC
:101DE000154800F047F8874208D0E269691C521E86
:101DF0001148E261FEF7C8F9BDE8FC81A8780F4BF5
:101E000042080021606A0AE005EB410701EB000C83
:101E1000B7F80370491C7FBA23F81C7089B291424D
:101E2000F2D311466269904702E0B2F5807FE3D1B8
:101E3000E661E1E718000020D4000020D401002072
:101E400018B103494860002070476FF005007047E3
:101E5000180000200FB4054B10B503A9044A0298DE
:101E600000F000F910BC5DF814FB00009527000895
:101E700040000020F0B5FF23084E1C46002206F566
:101E8000807705E0855C5D40735D63407C5D521C3E
:101E90008A42F7DB44EA0320F0BD00002E2A000846
:101EA0000907090E002804DB00F1E02080F8001487
:101EB000704700F00F0000F1E02080F8141D70471B
:101EC00002E008C8121F08C1002AFAD17047704703
:101ED000002001E001C1121F002AFBD17047000061
:101EE0002DE9FF5F82B00021DDE90430020DDDF84D
:101EF00040B0034318D044F61050A2F2FF324243E0
:101F00001514119801281FD0A5EB0B00401C5FEAA7
:101F1000000A4FF000064E4FDFF83891B0465046A9
:101F200015D5CAF1000413E0119801244AA3012831
:101F300001D16FEA0B010298119AC0E90031C0E9A2
:101F4000024206B0BDE8F09FCBF10000DFE7044697
:101F50000021404A491842EB0450CDE9001012E03C
:101F6000E00707D032463B4640464946FEF7B4FA02
:101F70008046894632463B4610461946FEF7ACFA83
:101F800006460F466410002CEAD1DDE90401DDE9C4
:101F90000023BAF1000F06DAFEF79EFA42464B46DE
:101FA000FEF79AFA05E0FEF709FB42464B46FEF7BC
:101FB00005FB04460E460022284BFEF787FB03D89C
:101FC0004FF0FF30014607E00022254B2046314606
:101FD000FEF7DBF9FEF761FB102409E0002C0ADBB9
:101FE0000A220023FEF769F9039B30321A55641E5A
:101FF00050EA0102F2D1641C039AC4F111031444A3
:10200000119A012A03D0012208430DD10AE00843A6
:1020100004D000204FF0110B119072E7A3EB0B05D9
:102020006D1E0DE05B4504DD4FF0000205F101057A
:1020300004E003DA4FF00002A5F10105002AECD01C
:1020400002981199C0E90231C0E9004579E7000022
:10205000000014400000F03F300000000000F0439A
:102060000000E03F2DE9FF4F95B09B4689460646AC
:1020700000250FE2252877D100242746F84A0121C0
:10208000059400E0044316F8013F203B01FA03F0F9
:102090001042F7D130782A2811D06FF02F03307812
:1020A000A0F13002092A16D8059A44F0020402EB86
:1020B000820203EB42021044761C0590EFE759F8C8
:1020C000042B0592002A03DA504244F40054059090
:1020D00044F00204761C30782E2816D116F8010F31
:1020E00044F004042A280DD06FF02F023078A0F1BC
:1020F0003003092B09D807EB870302EB4303C7180A
:10210000761CF3E759F8047B761C30786C280FD0E6
:1021100006DC4C2817D068280DD06A2814D104E0BA
:10212000742810D07A280FD10DE044F400140AE08E
:1021300044F4801401E044F440147278824202D1E5
:1021400004F58014761C761C307866280BD013DCDE
:10215000582877D009DC002875D04528F6D04628C5
:10216000F4D047281AD19DE118E0632835D06428BF
:1021700079D0652812D195E1702873D008DC6728E2
:10218000F1D069286FD06E280DD06F2806D1B5E048
:1021900073282CD0752875D0782874D05A46179992
:1021A00090476D1C75E1C4F30250022809D0032842
:1021B0000DD0D9F8001004280DD00D6009F10409E4
:1021C00067E1D9F80010EA17C1E90052F6E7D9F83B
:1021D00000100D80F2E70D70F0E719F8041B8DF880
:1021E000001000208DF80100EA46012003E059F8B4
:1021F00004AB4FF0FF3061074FF0000102D40DE057
:1022000008F101018846B9420FDA8045F8DB1AF877
:1022100008100029F4D108E008F101018846814244
:10222000FADB1AF808100029F6D105985B46A0EBF6
:10223000080721463846179A00F094FA284400EB24
:10224000080507E04DE029E10DE01AF8010B5A46B8
:1022500017999047B8F10108F7D25B4621463846F6
:10226000179A13E142E00A220092C4F302524FF09F
:10227000000A022A08D059F804CB032A4FEAEC716D
:102280000AD00DE029E02AE009F1070121F0070258
:10229000F2E802C1914609E00FFA8CFC4FEAEC71BA
:1022A000042A03D14FFA8CFC4FEAEC71002907DABB
:1022B0000A460021DCF1000C61EB02012D2202E054
:1022C000220504D52B228DF80420012203E0E20729
:1022D00001D02022F7E7904659E00A2102E01022BF
:1022E0000DE010214FF0000A00910BE010224FF09A
:1022F000000A44F004040827009203E008224FF08B
:10230000000A0092C4F30252022A05D059F804CB05
:102310000021032A08D009E009F1070121F0070292
:10232000F2E802C1914605E01FFA8CFC042A01D1B3
:102330000CF0FF0C4FF00008220728D5702806D0BB
:10234000009B83F0100353EA0A0305D00EE04022FD
:102350008DF80420012208E05CEA010206D0302258
:102360008DF804208DF8050002229046009B83F032
:10237000080353EA0A030AD15CEA010201D16207A9
:1023800005D530228DF804204FF001087F1E582813
:1023900004D034A003900EA802900DE036A0F9E717
:1023A00053466046009AFDF788FF84460398825C96
:1023B0000298401E029002705CEA0100F0D102987F
:1023C00006A9081A00F1200A600702D524F4803417
:1023D00000E00127574502DDA7EB0A0000E00020DE
:1023E00000EB0A01009005984144401A0590E00373
:1023F00006D45B462146179A059800F0B3F90544C8
:10240000002706E001A85A46C05D179990476D1C49
:102410007F1C4745F6DBE0030CD55B462146179A47
:10242000059800F09FF9054404E030205A461799BA
:1024300090476D1C0099481E00900029F5DC08E0CB
:10244000029802995A460078491C029117999047C0
:102450006D1CBAF10001AAF1010AF1DC65E100008E
:10246000092801003031323334353637383961626A
:10247000636465660000000030313233343536372E
:1024800038394142434445460000000000F058F905
:102490000544761C307800287FF4ECAD19B028464E
:1024A000BDE8F08F620700D4062709F1070222F089
:1024B000070CFCE80223E14603F000485FEA080C41
:1024C00002D00FF2702C0DE05FEA045C02D50FF22F
:1024D000682C07E05FEAC47C02D00FF2602C01E0B8
:1024E000AFF2700C4FF0FF3823F00043CDF850C02E
:1024F00065280CD006DC452809D046281DD0472881
:102500003DD13DE0662818D067287ED138E0002113
:10251000112F01DB112000E0781CCDE9000106A994
:102520000EA8FFF7DDFCDDE90F010E9A03910021F3
:10253000009207F1010A04914DE04FF0004000972E
:10254000CDE9011006A90EA8FFF7CAFCDDE90F02CC
:1025500003920E9B11990022DDF80CA000930492C7
:1025600011B9791C00EB010AB7EB0A0004D4C0F1E1
:10257000FF3007F1010A0490AAEB0700019044E044
:10258000012F00DA01270021112F01DD112000E0C9
:102590003846CDE9000106A90EA8FFF7A1FCDDE948
:1025A0000F010E9A0391002104910092BA4621076F
:1025B0000CD40399514500DA8A46BAF1010F05DDC2
:1025C000009AAAF10101515C302908D0B84202DA20
:1025D00010F1040F06DA0121CDE9011015E0AAF18E
:1025E0000101E9E7002805DC049901440491AAEB04
:1025F000000102E0411C514500DD8A460499401A61
:10260000401C01904FF000400290200704D4019834
:10261000504501DBCDF8048000208DF84F00029872
:102620000DF14F07B0F1004F25D02B200E900298EE
:102630004FF0020800280CDA404202902D200E9044
:1026400007E00A210298FDF722FE3031029007F8D8
:10265000011DB8F10001A8F10108F2DC0298002880
:10266000EFD1791E0E980870307800F0200040F00D
:10267000450007F8020D12A8C01B00F107081498C6
:10268000007800B1012000EB0A01019801EBE07134
:1026900005984144401A401E0590E00306D45B466D
:1026A0002146179A059800F05DF8054414980078C3
:1026B00018B15A46179990476D1CE00324D55B4624
:1026C0002146179A059800F04DF805441CE004983F
:1026D000002807DBDDE90301884203DD0098405C48
:1026E000179901E0179930205A469047049805F150
:1026F0000105401C04900198401E019004D12E2039
:102700005A46179990476D1CBAF10001AAF1010AC7
:10271000DDDC05E017F8010B5A46179990476D1C50
:10272000B8F10001A8F10108F4DC5B462146179AD4
:102730000598ABE62D0000002B00000020000000F3
:102740002DE9F041044600251E461746880404D4AE
:1027500005E039462020B0476D1C641EF9D5284697
:10276000BDE8F0812DE9F041044600251E46904663
:10277000C80301D5302700E02027880404D505E0F0
:1027800041463846B0476D1C641EF9D52846BDE861
:10279000F081000013B54FF47A73012269460248B4
:1027A000FEF7F0FF00981CBD4400002090B0FEF73B
:1027B000EDFAFFF78BF8FFF735F8FFF75DF8FFF755
:1027C0003FF850210020FFF703FA6348FFF738FB7A
:1027D0006248FFF7ABFA6248FFF73CFBFEF71EF8D2
:1027E00060A0FFF737FB604D60A0FFF733FB4FF4AD
:1027F000FA70FEF7AFF9DFF8788198F80100002849
:10280000F2D05CA0FFF726FB00240DF118090DF1B2
:10281000240A0DF1300B6FF00E0600BF05EB4407E4
:1028200037F9680FFDF712FD3146FDF703FD04216E
:10283000FDF700FD49F82400B7F90600FDF706FD95
:102840003146FDF7F7FC4C49FDF7C2FC4AF824007D
:10285000B7F91200FDF7FAFC3146FDF7EBFC4749EA
:10286000FDF7B6FC4BF82400641C032CD6DB98F86B
:1028700001004446C00717D00898FDF7F5FC8146D3
:102880008A460798FDF7F0FC074688460698FDF74C
:10289000EBFC8DE8800702460B4639A0FFF7DAFA19
:1028A000607820F0010060706078800717D50B9881
:1028B000FDF7DAFC81468A460A98FDF7D5FC074603
:1028C00088460998FDF7D0FC8DE8800702460B4644
:1028D00031A0FFF7BFFA607820F0020060706078E6
:1028E000400725D5B5F87E00FDF7B9FC3146FDF768
:1028F000A1FC2249FDF76CFCFDF7B6FC82468B4635
:102900000E98FDF7B1FC804689460D98FDF7ACFCAA
:1029100006460F460C98FDF7A7FC8DE8C00F02464F
:102920000B4623A0FFF796FA607820F00400607051
:10293000607800070CD5B5F97830B5F97620B5F98F
:10294000741023A0FFF786FA607820F0080060700A
:102950000020607048E70000B9180008D908000896
:10296000302C000831000000D401002032000000AB
:1029700000000020330000000000FA44000034434F
:102980006163633A252E336620252E336620252E7B
:1029900033660D0A000000006779726F3A252E3306
:1029A0006620252E336620252E33660D0A00000092
:1029B000616E676C653A252E336620252E336620BE
:1029C000252E336628252E3366290D0A00000000C7
:1029D0006D61673A25642025642025640D0A000096
:1029E000C012000080250000004B0000009600008F
:1029F00000E1000000C2010000840300000807009D
:102A000000100E00010202030405060708090A0B64
:102A10000C0D0E0F1010000000000000000001025D
:102A2000030406070809000000000102030400C1B6
:102A3000814001C0804101C0804100C1814001C08E
:102A4000804100C1814000C1814001C0804101C07E
:102A5000804100C1814000C1814001C0804100C16E
:102A6000814001C0804101C0804100C1814001C05E
:102A7000804100C1814000C1814001C0804100C14E
:102A8000814001C0804101C0804100C1814000C13E
:102A9000814001C0804101C0804100C1814001C02E
:102AA000804100C1814000C1814001C0804101C01E
:102AB000804100C1814000C1814001C0804100C10E
:102AC000814001C0804101C0804100C1814000C1FE
:102AD000814001C0804101C0804100C1814001C0EE
:102AE000804100C1814000C1814001C0804100C1DE
:102AF000814001C0804101C0804100C1814001C0CE
:102B0000804100C1814000C1814001C0804101C0BD
:102B1000804100C1814000C1814001C0804100C1AD
:102B2000814001C0804101C0804100C1814000C09E
:102B3000C101C30302C2C60607C705C5C404CC0C45
:102B40000DCD0FCFCE0E0ACACB0BC90908C8D818B5
:102B500019D91BDBDA1A1EDEDF1FDD1D1CDC14D4C5
:102B6000D515D71716D6D21213D311D1D010F030F5
:102B700031F133F3F23236F6F737F53534F43CFC05
:102B8000FD3DFF3F3EFEFA3A3BFB39F9F83828E8B5
:102B9000E929EB2B2AEAEE2E2FEF2DEDEC2CE42485
:102BA00025E527E7E62622E2E323E12120E0A060F5
:102BB00061A163A3A26266A6A767A56564A46CACC5
:102BC000AD6DAF6F6EAEAA6A6BAB69A9A86878B835
:102BD000B979BB7B7ABABE7E7FBF7DBDBC7CB47445
:102BE00075B577B7B67672B2B373B17170B05090F5
:102BF00091519353529296565797559594549C5C85
:102C00005D9D5F9F9E5E5A9A9B5B99595898884834
:102C100049894B8B8A4A4E8E8F4F8D4D4C8C448404
:102C20008545874746868242438341818040000034
:102C30000D0A2A2A2A2A2A2A2A2A2A2A2A2A2A2A31
:102C40002A2A2A2A2A2A2A2A207769742D6D6F7443
:102C5000696F6E206E6F726D616C206578616D704A
:102C60006C65092A2A2A2A2A2A2A2A2A2A2A2A2A68
:102C70002A2A2A2A2A2A2A2A2A2A2A0D0A0000006F
:102C8000A02C00080000002044000000C01E000826
:102C9000E42C000844000020B4060000D01E000808
:102CA0000000000000C20100010000001000000050
:102CB000000000000024F400FF00000000000000FD
:102CC0000000000000000000000000000000000004
:102CD00000000000000000000000000000000000F4
:042CE00000000000F0
:0400000508000131BD
:00000001FF
